{
  "_format": "hh-sol-artifact-1",
  "contractName": "RandomNFT",
  "sourceName": "contracts/RandomNFT.sol",
  "abi": [
    {
      "inputs": [],
      "stateMutability": "payable",
      "type": "constructor"
    },
    {
      "anonymous": false,
      "inputs": [
        {
          "indexed": true,
          "internalType": "address",
          "name": "owner",
          "type": "address"
        },
        {
          "indexed": true,
          "internalType": "address",
          "name": "approved",
          "type": "address"
        },
        {
          "indexed": true,
          "internalType": "uint256",
          "name": "tokenId",
          "type": "uint256"
        }
      ],
      "name": "Approval",
      "type": "event"
    },
    {
      "anonymous": false,
      "inputs": [
        {
          "indexed": true,
          "internalType": "address",
          "name": "owner",
          "type": "address"
        },
        {
          "indexed": true,
          "internalType": "address",
          "name": "operator",
          "type": "address"
        },
        {
          "indexed": false,
          "internalType": "bool",
          "name": "approved",
          "type": "bool"
        }
      ],
      "name": "ApprovalForAll",
      "type": "event"
    },
    {
      "anonymous": false,
      "inputs": [
        {
          "indexed": true,
          "internalType": "address",
          "name": "account",
          "type": "address"
        },
        {
          "indexed": true,
          "internalType": "uint256",
          "name": "tokenId",
          "type": "uint256"
        },
        {
          "indexed": false,
          "internalType": "string",
          "name": "metadata",
          "type": "string"
        }
      ],
      "name": "Mint",
      "type": "event"
    },
    {
      "anonymous": false,
      "inputs": [
        {
          "indexed": true,
          "internalType": "address",
          "name": "previousOwner",
          "type": "address"
        },
        {
          "indexed": true,
          "internalType": "address",
          "name": "newOwner",
          "type": "address"
        }
      ],
      "name": "OwnershipTransferred",
      "type": "event"
    },
    {
      "anonymous": false,
      "inputs": [
        {
          "indexed": true,
          "internalType": "address",
          "name": "from",
          "type": "address"
        },
        {
          "indexed": true,
          "internalType": "address",
          "name": "to",
          "type": "address"
        },
        {
          "indexed": true,
          "internalType": "uint256",
          "name": "tokenId",
          "type": "uint256"
        }
      ],
      "name": "Transfer",
      "type": "event"
    },
    {
      "anonymous": false,
      "inputs": [
        {
          "indexed": true,
          "internalType": "address",
          "name": "account",
          "type": "address"
        },
        {
          "indexed": false,
          "internalType": "uint256",
          "name": "amount",
          "type": "uint256"
        }
      ],
      "name": "Withdraw",
      "type": "event"
    },
    {
      "inputs": [
        {
          "internalType": "address",
          "name": "to",
          "type": "address"
        },
        {
          "internalType": "uint256",
          "name": "tokenId",
          "type": "uint256"
        }
      ],
      "name": "approve",
      "outputs": [],
      "stateMutability": "nonpayable",
      "type": "function"
    },
    {
      "inputs": [
        {
          "internalType": "address",
          "name": "owner",
          "type": "address"
        }
      ],
      "name": "balanceOf",
      "outputs": [
        {
          "internalType": "uint256",
          "name": "",
          "type": "uint256"
        }
      ],
      "stateMutability": "view",
      "type": "function"
    },
    {
      "inputs": [],
      "name": "baseTokenUri",
      "outputs": [
        {
          "internalType": "string",
          "name": "",
          "type": "string"
        }
      ],
      "stateMutability": "view",
      "type": "function"
    },
    {
      "inputs": [
        {
          "internalType": "uint256",
          "name": "tokenId",
          "type": "uint256"
        }
      ],
      "name": "getApproved",
      "outputs": [
        {
          "internalType": "address",
          "name": "",
          "type": "address"
        }
      ],
      "stateMutability": "view",
      "type": "function"
    },
    {
      "inputs": [
        {
          "internalType": "address",
          "name": "owner",
          "type": "address"
        },
        {
          "internalType": "address",
          "name": "operator",
          "type": "address"
        }
      ],
      "name": "isApprovedForAll",
      "outputs": [
        {
          "internalType": "bool",
          "name": "",
          "type": "bool"
        }
      ],
      "stateMutability": "view",
      "type": "function"
    },
    {
      "inputs": [],
      "name": "maxSupply",
      "outputs": [
        {
          "internalType": "uint256",
          "name": "",
          "type": "uint256"
        }
      ],
      "stateMutability": "view",
      "type": "function"
    },
    {
      "inputs": [
        {
          "internalType": "string",
          "name": "cid",
          "type": "string"
        },
        {
          "internalType": "bytes32",
          "name": "cidHash",
          "type": "bytes32"
        },
        {
          "internalType": "bytes",
          "name": "signature",
          "type": "bytes"
        }
      ],
      "name": "mint",
      "outputs": [],
      "stateMutability": "payable",
      "type": "function"
    },
    {
      "inputs": [],
      "name": "mintPrice",
      "outputs": [
        {
          "internalType": "uint256",
          "name": "",
          "type": "uint256"
        }
      ],
      "stateMutability": "view",
      "type": "function"
    },
    {
      "inputs": [],
      "name": "name",
      "outputs": [
        {
          "internalType": "string",
          "name": "",
          "type": "string"
        }
      ],
      "stateMutability": "view",
      "type": "function"
    },
    {
      "inputs": [],
      "name": "owner",
      "outputs": [
        {
          "internalType": "address",
          "name": "",
          "type": "address"
        }
      ],
      "stateMutability": "view",
      "type": "function"
    },
    {
      "inputs": [
        {
          "internalType": "uint256",
          "name": "tokenId",
          "type": "uint256"
        }
      ],
      "name": "ownerOf",
      "outputs": [
        {
          "internalType": "address",
          "name": "",
          "type": "address"
        }
      ],
      "stateMutability": "view",
      "type": "function"
    },
    {
      "inputs": [],
      "name": "renounceOwnership",
      "outputs": [],
      "stateMutability": "nonpayable",
      "type": "function"
    },
    {
      "inputs": [
        {
          "internalType": "address",
          "name": "from",
          "type": "address"
        },
        {
          "internalType": "address",
          "name": "to",
          "type": "address"
        },
        {
          "internalType": "uint256",
          "name": "tokenId",
          "type": "uint256"
        }
      ],
      "name": "safeTransferFrom",
      "outputs": [],
      "stateMutability": "nonpayable",
      "type": "function"
    },
    {
      "inputs": [
        {
          "internalType": "address",
          "name": "from",
          "type": "address"
        },
        {
          "internalType": "address",
          "name": "to",
          "type": "address"
        },
        {
          "internalType": "uint256",
          "name": "tokenId",
          "type": "uint256"
        },
        {
          "internalType": "bytes",
          "name": "data",
          "type": "bytes"
        }
      ],
      "name": "safeTransferFrom",
      "outputs": [],
      "stateMutability": "nonpayable",
      "type": "function"
    },
    {
      "inputs": [
        {
          "internalType": "address",
          "name": "operator",
          "type": "address"
        },
        {
          "internalType": "bool",
          "name": "approved",
          "type": "bool"
        }
      ],
      "name": "setApprovalForAll",
      "outputs": [],
      "stateMutability": "nonpayable",
      "type": "function"
    },
    {
      "inputs": [
        {
          "internalType": "string",
          "name": "_baseTokenUri",
          "type": "string"
        }
      ],
      "name": "setBaseTokenUri",
      "outputs": [],
      "stateMutability": "nonpayable",
      "type": "function"
    },
    {
      "inputs": [
        {
          "internalType": "bytes4",
          "name": "interfaceId",
          "type": "bytes4"
        }
      ],
      "name": "supportsInterface",
      "outputs": [
        {
          "internalType": "bool",
          "name": "",
          "type": "bool"
        }
      ],
      "stateMutability": "view",
      "type": "function"
    },
    {
      "inputs": [],
      "name": "symbol",
      "outputs": [
        {
          "internalType": "string",
          "name": "",
          "type": "string"
        }
      ],
      "stateMutability": "view",
      "type": "function"
    },
    {
      "inputs": [
        {
          "internalType": "uint256",
          "name": "_tokenId",
          "type": "uint256"
        }
      ],
      "name": "tokenURI",
      "outputs": [
        {
          "internalType": "string",
          "name": "",
          "type": "string"
        }
      ],
      "stateMutability": "view",
      "type": "function"
    },
    {
      "inputs": [],
      "name": "totalSupply",
      "outputs": [
        {
          "internalType": "uint256",
          "name": "",
          "type": "uint256"
        }
      ],
      "stateMutability": "view",
      "type": "function"
    },
    {
      "inputs": [
        {
          "internalType": "address",
          "name": "from",
          "type": "address"
        },
        {
          "internalType": "address",
          "name": "to",
          "type": "address"
        },
        {
          "internalType": "uint256",
          "name": "tokenId",
          "type": "uint256"
        }
      ],
      "name": "transferFrom",
      "outputs": [],
      "stateMutability": "nonpayable",
      "type": "function"
    },
    {
      "inputs": [
        {
          "internalType": "address",
          "name": "newOwner",
          "type": "address"
        }
      ],
      "name": "transferOwnership",
      "outputs": [],
      "stateMutability": "nonpayable",
      "type": "function"
    },
    {
      "inputs": [],
      "name": "withdraw",
      "outputs": [],
      "stateMutability": "nonpayable",
      "type": "function"
    },
    {
      "stateMutability": "payable",
      "type": "receive"
    }
  ],
  "bytecode": "0x60806040526040518060400160405280600981526020017f52616e646f6d4e465400000000000000000000000000000000000000000000008152506040518060400160405280600281526020017f52440000000000000000000000000000000000000000000000000000000000008152508160009081620000819190620004bf565b508060019081620000939190620004bf565b505050620000b6620000aa6200017760201b60201c565b6200017f60201b60201c565b3273ffffffffffffffffffffffffffffffffffffffff163373ffffffffffffffffffffffffffffffffffffffff161462000127576040517f08c379a00000000000000000000000000000000000000000000000000000000081526004016200011e906200062d565b60405180910390fd5b66038d7ea4c6800060078190555060006008819055506103e86009819055506040518060600160405280602181526020016200424e60219139600a9081620001709190620004bf565b506200064f565b600033905090565b6000600660009054906101000a900473ffffffffffffffffffffffffffffffffffffffff16905081600660006101000a81548173ffffffffffffffffffffffffffffffffffffffff021916908373ffffffffffffffffffffffffffffffffffffffff1602179055508173ffffffffffffffffffffffffffffffffffffffff168173ffffffffffffffffffffffffffffffffffffffff167f8be0079c531659141344cd1fd0a4f28419497f9722a3daafe3b4186f6b6457e060405160405180910390a35050565b600081519050919050565b7f4e487b7100000000000000000000000000000000000000000000000000000000600052604160045260246000fd5b7f4e487b7100000000000000000000000000000000000000000000000000000000600052602260045260246000fd5b60006002820490506001821680620002c757607f821691505b602082108103620002dd57620002dc6200027f565b5b50919050565b60008190508160005260206000209050919050565b60006020601f8301049050919050565b600082821b905092915050565b600060088302620003477fffffffffffffffffffffffffffffffffffffffffffffffffffffffffffffffff8262000308565b62000353868362000308565b95508019841693508086168417925050509392505050565b6000819050919050565b6000819050919050565b6000620003a06200039a62000394846200036b565b62000375565b6200036b565b9050919050565b6000819050919050565b620003bc836200037f565b620003d4620003cb82620003a7565b84845462000315565b825550505050565b600090565b620003eb620003dc565b620003f8818484620003b1565b505050565b5b81811015620004205762000414600082620003e1565b600181019050620003fe565b5050565b601f8211156200046f576200043981620002e3565b6200044484620002f8565b8101602085101562000454578190505b6200046c6200046385620002f8565b830182620003fd565b50505b505050565b600082821c905092915050565b6000620004946000198460080262000474565b1980831691505092915050565b6000620004af838362000481565b9150826002028217905092915050565b620004ca8262000245565b67ffffffffffffffff811115620004e657620004e562000250565b5b620004f28254620002ae565b620004ff82828562000424565b600060209050601f83116001811462000537576000841562000522578287015190505b6200052e8582620004a1565b8655506200059e565b601f1984166200054786620002e3565b60005b8281101562000571578489015182556001820191506020850194506020810190506200054a565b868310156200059157848901516200058d601f89168262000481565b8355505b6001600288020188555050505b505050505050565b600082825260208201905092915050565b7f4f6e6c792065787465726e616c6c79206f776e6564206163636f756e7473206360008201527f616e20637265617465207468697320636f6e74726163742e0000000000000000602082015250565b600062000615603883620005a6565b91506200062282620005b7565b604082019050919050565b60006020820190508181036000830152620006488162000606565b9050919050565b613bef806200065f6000396000f3fe6080604052600436106101445760003560e01c8063715018a6116100b6578063b88d4fde1161006f578063b88d4fde14610441578063c5c2d15c1461046a578063c87b56dd14610486578063d5abeb01146104c3578063e985e9c5146104ee578063f2fde38b1461052b5761014b565b8063715018a6146103575780637a0101a21461036e5780638da5cb5b1461039957806395652cfa146103c457806395d89b41146103ed578063a22cb465146104185761014b565b806323b872dd1161010857806323b872dd146102495780633ccfd60b1461027257806342842e0e146102895780636352211e146102b25780636817c76c146102ef57806370a082311461031a5761014b565b806301ffc9a71461015057806306fdde031461018d578063081812fc146101b8578063095ea7b3146101f557806318160ddd1461021e5761014b565b3661014b57005b600080fd5b34801561015c57600080fd5b5061017760048036038101906101729190612370565b610554565b60405161018491906123b8565b60405180910390f35b34801561019957600080fd5b506101a2610636565b6040516101af9190612463565b60405180910390f35b3480156101c457600080fd5b506101df60048036038101906101da91906124bb565b6106c8565b6040516101ec9190612529565b60405180910390f35b34801561020157600080fd5b5061021c60048036038101906102179190612570565b61070e565b005b34801561022a57600080fd5b50610233610825565b60405161024091906125bf565b60405180910390f35b34801561025557600080fd5b50610270600480360381019061026b91906125da565b61082b565b005b34801561027e57600080fd5b5061028761088b565b005b34801561029557600080fd5b506102b060048036038101906102ab91906125da565b610981565b005b3480156102be57600080fd5b506102d960048036038101906102d491906124bb565b6109a1565b6040516102e69190612529565b60405180910390f35b3480156102fb57600080fd5b50610304610a27565b60405161031191906125bf565b60405180910390f35b34801561032657600080fd5b50610341600480360381019061033c919061262d565b610a2d565b60405161034e91906125bf565b60405180910390f35b34801561036357600080fd5b5061036c610ae4565b005b34801561037a57600080fd5b50610383610af8565b6040516103909190612463565b60405180910390f35b3480156103a557600080fd5b506103ae610b86565b6040516103bb9190612529565b60405180910390f35b3480156103d057600080fd5b506103eb60048036038101906103e691906126bf565b610bb0565b005b3480156103f957600080fd5b50610402610bce565b60405161040f9190612463565b60405180910390f35b34801561042457600080fd5b5061043f600480360381019061043a9190612738565b610c60565b005b34801561044d57600080fd5b50610468600480360381019061046391906128a8565b610c76565b005b610484600480360381019061047f91906129b7565b610cd8565b005b34801561049257600080fd5b506104ad60048036038101906104a891906124bb565b610fb2565b6040516104ba9190612463565b60405180910390f35b3480156104cf57600080fd5b506104d8611038565b6040516104e591906125bf565b60405180910390f35b3480156104fa57600080fd5b5061051560048036038101906105109190612a4c565b61103e565b60405161052291906123b8565b60405180910390f35b34801561053757600080fd5b50610552600480360381019061054d919061262d565b6110d2565b005b60007f80ac58cd000000000000000000000000000000000000000000000000000000007bffffffffffffffffffffffffffffffffffffffffffffffffffffffff1916827bffffffffffffffffffffffffffffffffffffffffffffffffffffffff1916148061061f57507f5b5e139f000000000000000000000000000000000000000000000000000000007bffffffffffffffffffffffffffffffffffffffffffffffffffffffff1916827bffffffffffffffffffffffffffffffffffffffffffffffffffffffff1916145b8061062f575061062e82611155565b5b9050919050565b60606000805461064590612abb565b80601f016020809104026020016040519081016040528092919081815260200182805461067190612abb565b80156106be5780601f10610693576101008083540402835291602001916106be565b820191906000526020600020905b8154815290600101906020018083116106a157829003601f168201915b5050505050905090565b60006106d3826111bf565b6004600083815260200190815260200160002060009054906101000a900473ffffffffffffffffffffffffffffffffffffffff169050919050565b6000610719826109a1565b90508073ffffffffffffffffffffffffffffffffffffffff168373ffffffffffffffffffffffffffffffffffffffff1603610789576040517f08c379a000000000000000000000000000000000000000000000000000000000815260040161078090612b5e565b60405180910390fd5b8073ffffffffffffffffffffffffffffffffffffffff166107a861120a565b73ffffffffffffffffffffffffffffffffffffffff1614806107d757506107d6816107d161120a565b61103e565b5b610816576040517f08c379a000000000000000000000000000000000000000000000000000000000815260040161080d90612bf0565b60405180910390fd5b6108208383611212565b505050565b60085481565b61083c61083661120a565b826112cb565b61087b576040517f08c379a000000000000000000000000000000000000000000000000000000000815260040161087290612c82565b60405180910390fd5b610886838383611360565b505050565b610893611659565b6000479050600081116108db576040517f08c379a00000000000000000000000000000000000000000000000000000000081526004016108d290612cee565b60405180910390fd5b6108e3610b86565b73ffffffffffffffffffffffffffffffffffffffff166108fc829081150290604051600060405180830381858888f19350505050158015610928573d6000803e3d6000fd5b50610931610b86565b73ffffffffffffffffffffffffffffffffffffffff167f884edad9ce6fa2440d8a54cc123490eb96d2768479d49ff9c7366125a94243648260405161097691906125bf565b60405180910390a250565b61099c83838360405180602001604052806000815250610c76565b505050565b6000806109ad836116d7565b9050600073ffffffffffffffffffffffffffffffffffffffff168173ffffffffffffffffffffffffffffffffffffffff1603610a1e576040517f08c379a0000000000000000000000000000000000000000000000000000000008152600401610a1590612d5a565b60405180910390fd5b80915050919050565b60075481565b60008073ffffffffffffffffffffffffffffffffffffffff168273ffffffffffffffffffffffffffffffffffffffff1603610a9d576040517f08c379a0000000000000000000000000000000000000000000000000000000008152600401610a9490612dec565b60405180910390fd5b600360008373ffffffffffffffffffffffffffffffffffffffff1673ffffffffffffffffffffffffffffffffffffffff168152602001908152602001600020549050919050565b610aec611659565b610af66000611714565b565b600a8054610b0590612abb565b80601f0160208091040260200160405190810160405280929190818152602001828054610b3190612abb565b8015610b7e5780601f10610b5357610100808354040283529160200191610b7e565b820191906000526020600020905b815481529060010190602001808311610b6157829003601f168201915b505050505081565b6000600660009054906101000a900473ffffffffffffffffffffffffffffffffffffffff16905090565b610bb8611659565b8181600a9182610bc9929190612fc3565b505050565b606060018054610bdd90612abb565b80601f0160208091040260200160405190810160405280929190818152602001828054610c0990612abb565b8015610c565780601f10610c2b57610100808354040283529160200191610c56565b820191906000526020600020905b815481529060010190602001808311610c3957829003601f168201915b5050505050905090565b610c72610c6b61120a565b83836117da565b5050565b610c87610c8161120a565b836112cb565b610cc6576040517f08c379a0000000000000000000000000000000000000000000000000000000008152600401610cbd90612c82565b60405180910390fd5b610cd284848484611946565b50505050565b600754341015610d1d576040517f08c379a0000000000000000000000000000000000000000000000000000000008152600401610d14906130df565b60405180910390fd5b6009546001600854610d2f919061312e565b1115610d70576040517f08c379a0000000000000000000000000000000000000000000000000000000008152600401610d67906131ae565b60405180910390fd5b6000600c8686604051610d849291906131fe565b90815260200160405180910390205414610dd3576040517f08c379a0000000000000000000000000000000000000000000000000000000008152600401610dca90613263565b60405180910390fd5b6000610e2b610de1856119a2565b84848080601f016020809104026020016040519081016040528093929190818152602001838380828437600081840152601f19601f820116905080830192505050505050506119d2565b9050610e35610b86565b73ffffffffffffffffffffffffffffffffffffffff168173ffffffffffffffffffffffffffffffffffffffff1614610ea2576040517f08c379a0000000000000000000000000000000000000000000000000000000008152600401610e99906132cf565b60405180910390fd5b60086000815480929190610eb5906132ef565b919050555060006008549050610f006040518060400160405280600281526020017f2573000000000000000000000000000000000000000000000000000000000000815250826119f9565b8686600b60008481526020019081526020016000209182610f22929190612fc3565b5080600c8888604051610f369291906131fe565b908152602001604051809103902081905550610f523382611a95565b803373ffffffffffffffffffffffffffffffffffffffff167f85a66b9141978db9980f7e0ce3b468cebf4f7999f32b23091c5c03e798b1ba7a610f9484610fb2565b604051610fa19190612463565b60405180910390a350505050505050565b6060610fbd82611ab3565b610ffc576040517f08c379a0000000000000000000000000000000000000000000000000000000008152600401610ff390612d5a565b60405180910390fd5b600a600b60008481526020019081526020016000206040516020016110229291906133ba565b6040516020818303038152906040529050919050565b60095481565b6000600560008473ffffffffffffffffffffffffffffffffffffffff1673ffffffffffffffffffffffffffffffffffffffff16815260200190815260200160002060008373ffffffffffffffffffffffffffffffffffffffff1673ffffffffffffffffffffffffffffffffffffffff16815260200190815260200160002060009054906101000a900460ff16905092915050565b6110da611659565b600073ffffffffffffffffffffffffffffffffffffffff168173ffffffffffffffffffffffffffffffffffffffff1603611149576040517f08c379a000000000000000000000000000000000000000000000000000000000815260040161114090613450565b60405180910390fd5b61115281611714565b50565b60007f01ffc9a7000000000000000000000000000000000000000000000000000000007bffffffffffffffffffffffffffffffffffffffffffffffffffffffff1916827bffffffffffffffffffffffffffffffffffffffffffffffffffffffff1916149050919050565b6111c881611ab3565b611207576040517f08c379a00000000000000000000000000000000000000000000000000000000081526004016111fe90612d5a565b60405180910390fd5b50565b600033905090565b816004600083815260200190815260200160002060006101000a81548173ffffffffffffffffffffffffffffffffffffffff021916908373ffffffffffffffffffffffffffffffffffffffff160217905550808273ffffffffffffffffffffffffffffffffffffffff16611285836109a1565b73ffffffffffffffffffffffffffffffffffffffff167f8c5be1e5ebec7d5bd14f71427d1e84f3dd0314c0f7b2291e5b200ac8c7c3b92560405160405180910390a45050565b6000806112d7836109a1565b90508073ffffffffffffffffffffffffffffffffffffffff168473ffffffffffffffffffffffffffffffffffffffff1614806113195750611318818561103e565b5b8061135757508373ffffffffffffffffffffffffffffffffffffffff1661133f846106c8565b73ffffffffffffffffffffffffffffffffffffffff16145b91505092915050565b8273ffffffffffffffffffffffffffffffffffffffff16611380826109a1565b73ffffffffffffffffffffffffffffffffffffffff16146113d6576040517f08c379a00000000000000000000000000000000000000000000000000000000081526004016113cd906134e2565b60405180910390fd5b600073ffffffffffffffffffffffffffffffffffffffff168273ffffffffffffffffffffffffffffffffffffffff1603611445576040517f08c379a000000000000000000000000000000000000000000000000000000000815260040161143c90613574565b60405180910390fd5b6114528383836001611af4565b8273ffffffffffffffffffffffffffffffffffffffff16611472826109a1565b73ffffffffffffffffffffffffffffffffffffffff16146114c8576040517f08c379a00000000000000000000000000000000000000000000000000000000081526004016114bf906134e2565b60405180910390fd5b6004600082815260200190815260200160002060006101000a81549073ffffffffffffffffffffffffffffffffffffffff02191690556001600360008573ffffffffffffffffffffffffffffffffffffffff1673ffffffffffffffffffffffffffffffffffffffff168152602001908152602001600020600082825403925050819055506001600360008473ffffffffffffffffffffffffffffffffffffffff1673ffffffffffffffffffffffffffffffffffffffff16815260200190815260200160002060008282540192505081905550816002600083815260200190815260200160002060006101000a81548173ffffffffffffffffffffffffffffffffffffffff021916908373ffffffffffffffffffffffffffffffffffffffff160217905550808273ffffffffffffffffffffffffffffffffffffffff168473ffffffffffffffffffffffffffffffffffffffff167fddf252ad1be2c89b69c2b068fc378daa952ba7f163c4a11628f55a4df523b3ef60405160405180910390a46116548383836001611c1a565b505050565b61166161120a565b73ffffffffffffffffffffffffffffffffffffffff1661167f610b86565b73ffffffffffffffffffffffffffffffffffffffff16146116d5576040517f08c379a00000000000000000000000000000000000000000000000000000000081526004016116cc906135e0565b60405180910390fd5b565b60006002600083815260200190815260200160002060009054906101000a900473ffffffffffffffffffffffffffffffffffffffff169050919050565b6000600660009054906101000a900473ffffffffffffffffffffffffffffffffffffffff16905081600660006101000a81548173ffffffffffffffffffffffffffffffffffffffff021916908373ffffffffffffffffffffffffffffffffffffffff1602179055508173ffffffffffffffffffffffffffffffffffffffff168173ffffffffffffffffffffffffffffffffffffffff167f8be0079c531659141344cd1fd0a4f28419497f9722a3daafe3b4186f6b6457e060405160405180910390a35050565b8173ffffffffffffffffffffffffffffffffffffffff168373ffffffffffffffffffffffffffffffffffffffff1603611848576040517f08c379a000000000000000000000000000000000000000000000000000000000815260040161183f9061364c565b60405180910390fd5b80600560008573ffffffffffffffffffffffffffffffffffffffff1673ffffffffffffffffffffffffffffffffffffffff16815260200190815260200160002060008473ffffffffffffffffffffffffffffffffffffffff1673ffffffffffffffffffffffffffffffffffffffff16815260200190815260200160002060006101000a81548160ff0219169083151502179055508173ffffffffffffffffffffffffffffffffffffffff168373ffffffffffffffffffffffffffffffffffffffff167f17307eab39ab6107e8899845ad3d59bd9653f200f220920489ca2b5937696c318360405161193991906123b8565b60405180910390a3505050565b611951848484611360565b61195d84848484611c20565b61199c576040517f08c379a0000000000000000000000000000000000000000000000000000000008152600401611993906136de565b60405180910390fd5b50505050565b6000816040516020016119b5919061376b565b604051602081830303815290604052805190602001209050919050565b60008060006119e18585611da7565b915091506119ee81611df8565b819250505092915050565b611a918282604051602401611a0f929190613791565b6040516020818303038152906040527fb60e72cc000000000000000000000000000000000000000000000000000000007bffffffffffffffffffffffffffffffffffffffffffffffffffffffff19166020820180517bffffffffffffffffffffffffffffffffffffffffffffffffffffffff8381831617835250505050611f5e565b5050565b611aaf828260405180602001604052806000815250611f87565b5050565b60008073ffffffffffffffffffffffffffffffffffffffff16611ad5836116d7565b73ffffffffffffffffffffffffffffffffffffffff1614159050919050565b6001811115611c1457600073ffffffffffffffffffffffffffffffffffffffff168473ffffffffffffffffffffffffffffffffffffffff1614611b885780600360008673ffffffffffffffffffffffffffffffffffffffff1673ffffffffffffffffffffffffffffffffffffffff1681526020019081526020016000206000828254611b8091906137c1565b925050819055505b600073ffffffffffffffffffffffffffffffffffffffff168373ffffffffffffffffffffffffffffffffffffffff1614611c135780600360008573ffffffffffffffffffffffffffffffffffffffff1673ffffffffffffffffffffffffffffffffffffffff1681526020019081526020016000206000828254611c0b919061312e565b925050819055505b5b50505050565b50505050565b6000611c418473ffffffffffffffffffffffffffffffffffffffff16611fe2565b15611d9a578373ffffffffffffffffffffffffffffffffffffffff1663150b7a02611c6a61120a565b8786866040518563ffffffff1660e01b8152600401611c8c949392919061384a565b6020604051808303816000875af1925050508015611cc857506040513d601f19601f82011682018060405250810190611cc591906138ab565b60015b611d4a573d8060008114611cf8576040519150601f19603f3d011682016040523d82523d6000602084013e611cfd565b606091505b506000815103611d42576040517f08c379a0000000000000000000000000000000000000000000000000000000008152600401611d39906136de565b60405180910390fd5b805181602001fd5b63150b7a0260e01b7bffffffffffffffffffffffffffffffffffffffffffffffffffffffff1916817bffffffffffffffffffffffffffffffffffffffffffffffffffffffff191614915050611d9f565b600190505b949350505050565b6000806041835103611de85760008060006020860151925060408601519150606086015160001a9050611ddc87828585612005565b94509450505050611df1565b60006002915091505b9250929050565b60006004811115611e0c57611e0b6138d8565b5b816004811115611e1f57611e1e6138d8565b5b0315611f5b5760016004811115611e3957611e386138d8565b5b816004811115611e4c57611e4b6138d8565b5b03611e8c576040517f08c379a0000000000000000000000000000000000000000000000000000000008152600401611e8390613953565b60405180910390fd5b60026004811115611ea057611e9f6138d8565b5b816004811115611eb357611eb26138d8565b5b03611ef3576040517f08c379a0000000000000000000000000000000000000000000000000000000008152600401611eea906139bf565b60405180910390fd5b60036004811115611f0757611f066138d8565b5b816004811115611f1a57611f196138d8565b5b03611f5a576040517f08c379a0000000000000000000000000000000000000000000000000000000008152600401611f5190613a51565b60405180910390fd5b5b50565b60008151905060006a636f6e736f6c652e6c6f679050602083016000808483855afa5050505050565b611f9183836120e7565b611f9e6000848484611c20565b611fdd576040517f08c379a0000000000000000000000000000000000000000000000000000000008152600401611fd4906136de565b60405180910390fd5b505050565b6000808273ffffffffffffffffffffffffffffffffffffffff163b119050919050565b6000807f7fffffffffffffffffffffffffffffff5d576e7357a4501ddfe92f46681b20a08360001c11156120405760006003915091506120de565b6000600187878787604051600081526020016040526040516120659493929190613a9c565b6020604051602081039080840390855afa158015612087573d6000803e3d6000fd5b505050602060405103519050600073ffffffffffffffffffffffffffffffffffffffff168173ffffffffffffffffffffffffffffffffffffffff16036120d5576000600192509250506120de565b80600092509250505b94509492505050565b600073ffffffffffffffffffffffffffffffffffffffff168273ffffffffffffffffffffffffffffffffffffffff1603612156576040517f08c379a000000000000000000000000000000000000000000000000000000000815260040161214d90613b2d565b60405180910390fd5b61215f81611ab3565b1561219f576040517f08c379a000000000000000000000000000000000000000000000000000000000815260040161219690613b99565b60405180910390fd5b6121ad600083836001611af4565b6121b681611ab3565b156121f6576040517f08c379a00000000000000000000000000000000000000000000000000000000081526004016121ed90613b99565b60405180910390fd5b6001600360008473ffffffffffffffffffffffffffffffffffffffff1673ffffffffffffffffffffffffffffffffffffffff16815260200190815260200160002060008282540192505081905550816002600083815260200190815260200160002060006101000a81548173ffffffffffffffffffffffffffffffffffffffff021916908373ffffffffffffffffffffffffffffffffffffffff160217905550808273ffffffffffffffffffffffffffffffffffffffff16600073ffffffffffffffffffffffffffffffffffffffff167fddf252ad1be2c89b69c2b068fc378daa952ba7f163c4a11628f55a4df523b3ef60405160405180910390a4612300600083836001611c1a565b5050565b6000604051905090565b600080fd5b600080fd5b60007fffffffff0000000000000000000000000000000000000000000000000000000082169050919050565b61234d81612318565b811461235857600080fd5b50565b60008135905061236a81612344565b92915050565b6000602082840312156123865761238561230e565b5b60006123948482850161235b565b91505092915050565b60008115159050919050565b6123b28161239d565b82525050565b60006020820190506123cd60008301846123a9565b92915050565b600081519050919050565b600082825260208201905092915050565b60005b8381101561240d5780820151818401526020810190506123f2565b60008484015250505050565b6000601f19601f8301169050919050565b6000612435826123d3565b61243f81856123de565b935061244f8185602086016123ef565b61245881612419565b840191505092915050565b6000602082019050818103600083015261247d818461242a565b905092915050565b6000819050919050565b61249881612485565b81146124a357600080fd5b50565b6000813590506124b58161248f565b92915050565b6000602082840312156124d1576124d061230e565b5b60006124df848285016124a6565b91505092915050565b600073ffffffffffffffffffffffffffffffffffffffff82169050919050565b6000612513826124e8565b9050919050565b61252381612508565b82525050565b600060208201905061253e600083018461251a565b92915050565b61254d81612508565b811461255857600080fd5b50565b60008135905061256a81612544565b92915050565b600080604083850312156125875761258661230e565b5b60006125958582860161255b565b92505060206125a6858286016124a6565b9150509250929050565b6125b981612485565b82525050565b60006020820190506125d460008301846125b0565b92915050565b6000806000606084860312156125f3576125f261230e565b5b60006126018682870161255b565b93505060206126128682870161255b565b9250506040612623868287016124a6565b9150509250925092565b6000602082840312156126435761264261230e565b5b60006126518482850161255b565b91505092915050565b600080fd5b600080fd5b600080fd5b60008083601f84011261267f5761267e61265a565b5b8235905067ffffffffffffffff81111561269c5761269b61265f565b5b6020830191508360018202830111156126b8576126b7612664565b5b9250929050565b600080602083850312156126d6576126d561230e565b5b600083013567ffffffffffffffff8111156126f4576126f3612313565b5b61270085828601612669565b92509250509250929050565b6127158161239d565b811461272057600080fd5b50565b6000813590506127328161270c565b92915050565b6000806040838503121561274f5761274e61230e565b5b600061275d8582860161255b565b925050602061276e85828601612723565b9150509250929050565b600080fd5b7f4e487b7100000000000000000000000000000000000000000000000000000000600052604160045260246000fd5b6127b582612419565b810181811067ffffffffffffffff821117156127d4576127d361277d565b5b80604052505050565b60006127e7612304565b90506127f382826127ac565b919050565b600067ffffffffffffffff8211156128135761281261277d565b5b61281c82612419565b9050602081019050919050565b82818337600083830152505050565b600061284b612846846127f8565b6127dd565b90508281526020810184848401111561286757612866612778565b5b612872848285612829565b509392505050565b600082601f83011261288f5761288e61265a565b5b813561289f848260208601612838565b91505092915050565b600080600080608085870312156128c2576128c161230e565b5b60006128d08782880161255b565b94505060206128e18782880161255b565b93505060406128f2878288016124a6565b925050606085013567ffffffffffffffff81111561291357612912612313565b5b61291f8782880161287a565b91505092959194509250565b6000819050919050565b61293e8161292b565b811461294957600080fd5b50565b60008135905061295b81612935565b92915050565b60008083601f8401126129775761297661265a565b5b8235905067ffffffffffffffff8111156129945761299361265f565b5b6020830191508360018202830111156129b0576129af612664565b5b9250929050565b6000806000806000606086880312156129d3576129d261230e565b5b600086013567ffffffffffffffff8111156129f1576129f0612313565b5b6129fd88828901612669565b95509550506020612a108882890161294c565b935050604086013567ffffffffffffffff811115612a3157612a30612313565b5b612a3d88828901612961565b92509250509295509295909350565b60008060408385031215612a6357612a6261230e565b5b6000612a718582860161255b565b9250506020612a828582860161255b565b9150509250929050565b7f4e487b7100000000000000000000000000000000000000000000000000000000600052602260045260246000fd5b60006002820490506001821680612ad357607f821691505b602082108103612ae657612ae5612a8c565b5b50919050565b7f4552433732313a20617070726f76616c20746f2063757272656e74206f776e6560008201527f7200000000000000000000000000000000000000000000000000000000000000602082015250565b6000612b486021836123de565b9150612b5382612aec565b604082019050919050565b60006020820190508181036000830152612b7781612b3b565b9050919050565b7f4552433732313a20617070726f76652063616c6c6572206973206e6f7420746f60008201527f6b656e206f776e6572206f7220617070726f76656420666f7220616c6c000000602082015250565b6000612bda603d836123de565b9150612be582612b7e565b604082019050919050565b60006020820190508181036000830152612c0981612bcd565b9050919050565b7f4552433732313a2063616c6c6572206973206e6f7420746f6b656e206f776e6560008201527f72206f7220617070726f76656400000000000000000000000000000000000000602082015250565b6000612c6c602d836123de565b9150612c7782612c10565b604082019050919050565b60006020820190508181036000830152612c9b81612c5f565b9050919050565b7f42616c616e6365206973207a65726f0000000000000000000000000000000000600082015250565b6000612cd8600f836123de565b9150612ce382612ca2565b602082019050919050565b60006020820190508181036000830152612d0781612ccb565b9050919050565b7f4552433732313a20696e76616c696420746f6b656e2049440000000000000000600082015250565b6000612d446018836123de565b9150612d4f82612d0e565b602082019050919050565b60006020820190508181036000830152612d7381612d37565b9050919050565b7f4552433732313a2061646472657373207a65726f206973206e6f74206120766160008201527f6c6964206f776e65720000000000000000000000000000000000000000000000602082015250565b6000612dd66029836123de565b9150612de182612d7a565b604082019050919050565b60006020820190508181036000830152612e0581612dc9565b9050919050565b600082905092915050565b60008190508160005260206000209050919050565b60006020601f8301049050919050565b600082821b905092915050565b600060088302612e797fffffffffffffffffffffffffffffffffffffffffffffffffffffffffffffffff82612e3c565b612e838683612e3c565b95508019841693508086168417925050509392505050565b6000819050919050565b6000612ec0612ebb612eb684612485565b612e9b565b612485565b9050919050565b6000819050919050565b612eda83612ea5565b612eee612ee682612ec7565b848454612e49565b825550505050565b600090565b612f03612ef6565b612f0e818484612ed1565b505050565b5b81811015612f3257612f27600082612efb565b600181019050612f14565b5050565b601f821115612f7757612f4881612e17565b612f5184612e2c565b81016020851015612f60578190505b612f74612f6c85612e2c565b830182612f13565b50505b505050565b600082821c905092915050565b6000612f9a60001984600802612f7c565b1980831691505092915050565b6000612fb38383612f89565b9150826002028217905092915050565b612fcd8383612e0c565b67ffffffffffffffff811115612fe657612fe561277d565b5b612ff08254612abb565b612ffb828285612f36565b6000601f83116001811461302a5760008415613018578287013590505b6130228582612fa7565b86555061308a565b601f19841661303886612e17565b60005b828110156130605784890135825560018201915060208501945060208101905061303b565b8683101561307d5784890135613079601f891682612f89565b8355505b6001600288020188555050505b50505050505050565b7f496e73756666696369656e74204554482073656e740000000000000000000000600082015250565b60006130c96015836123de565b91506130d482613093565b602082019050919050565b600060208201905081810360008301526130f8816130bc565b9050919050565b7f4e487b7100000000000000000000000000000000000000000000000000000000600052601160045260246000fd5b600061313982612485565b915061314483612485565b925082820190508082111561315c5761315b6130ff565b5b92915050565b7f4d6178696d756d20737570706c79207265616368656400000000000000000000600082015250565b60006131986016836123de565b91506131a382613162565b602082019050919050565b600060208201905081810360008301526131c78161318b565b9050919050565b600081905092915050565b60006131e583856131ce565b93506131f2838584612829565b82840190509392505050565b600061320b8284866131d9565b91508190509392505050565b7f416c7265616479206d696e746564000000000000000000000000000000000000600082015250565b600061324d600e836123de565b915061325882613217565b602082019050919050565b6000602082019050818103600083015261327c81613240565b9050919050565b7f496e76616c6964207369676e6174757265000000000000000000000000000000600082015250565b60006132b96011836123de565b91506132c482613283565b602082019050919050565b600060208201905081810360008301526132e8816132ac565b9050919050565b60006132fa82612485565b91507fffffffffffffffffffffffffffffffffffffffffffffffffffffffffffffffff820361332c5761332b6130ff565b5b600182019050919050565b6000815461334481612abb565b61334e81866131ce565b94506001821660008114613369576001811461337e576133b1565b60ff19831686528115158202860193506133b1565b61338785612e17565b60005b838110156133a95781548189015260018201915060208101905061338a565b838801955050505b50505092915050565b60006133c68285613337565b91506133d28284613337565b91508190509392505050565b7f4f776e61626c653a206e6577206f776e657220697320746865207a65726f206160008201527f6464726573730000000000000000000000000000000000000000000000000000602082015250565b600061343a6026836123de565b9150613445826133de565b604082019050919050565b600060208201905081810360008301526134698161342d565b9050919050565b7f4552433732313a207472616e736665722066726f6d20696e636f72726563742060008201527f6f776e6572000000000000000000000000000000000000000000000000000000602082015250565b60006134cc6025836123de565b91506134d782613470565b604082019050919050565b600060208201905081810360008301526134fb816134bf565b9050919050565b7f4552433732313a207472616e7366657220746f20746865207a65726f2061646460008201527f7265737300000000000000000000000000000000000000000000000000000000602082015250565b600061355e6024836123de565b915061356982613502565b604082019050919050565b6000602082019050818103600083015261358d81613551565b9050919050565b7f4f776e61626c653a2063616c6c6572206973206e6f7420746865206f776e6572600082015250565b60006135ca6020836123de565b91506135d582613594565b602082019050919050565b600060208201905081810360008301526135f9816135bd565b9050919050565b7f4552433732313a20617070726f766520746f2063616c6c657200000000000000600082015250565b60006136366019836123de565b915061364182613600565b602082019050919050565b6000602082019050818103600083015261366581613629565b9050919050565b7f4552433732313a207472616e7366657220746f206e6f6e20455243373231526560008201527f63656976657220696d706c656d656e7465720000000000000000000000000000602082015250565b60006136c86032836123de565b91506136d38261366c565b604082019050919050565b600060208201905081810360008301526136f7816136bb565b9050919050565b7f19457468657265756d205369676e6564204d6573736167653a0a333200000000600082015250565b6000613734601c836131ce565b915061373f826136fe565b601c82019050919050565b6000819050919050565b6137656137608261292b565b61374a565b82525050565b600061377682613727565b91506137828284613754565b60208201915081905092915050565b600060408201905081810360008301526137ab818561242a565b90506137ba60208301846125b0565b9392505050565b60006137cc82612485565b91506137d783612485565b92508282039050818111156137ef576137ee6130ff565b5b92915050565b600081519050919050565b600082825260208201905092915050565b600061381c826137f5565b6138268185613800565b93506138368185602086016123ef565b61383f81612419565b840191505092915050565b600060808201905061385f600083018761251a565b61386c602083018661251a565b61387960408301856125b0565b818103606083015261388b8184613811565b905095945050505050565b6000815190506138a581612344565b92915050565b6000602082840312156138c1576138c061230e565b5b60006138cf84828501613896565b91505092915050565b7f4e487b7100000000000000000000000000000000000000000000000000000000600052602160045260246000fd5b7f45434453413a20696e76616c6964207369676e61747572650000000000000000600082015250565b600061393d6018836123de565b915061394882613907565b602082019050919050565b6000602082019050818103600083015261396c81613930565b9050919050565b7f45434453413a20696e76616c6964207369676e6174757265206c656e67746800600082015250565b60006139a9601f836123de565b91506139b482613973565b602082019050919050565b600060208201905081810360008301526139d88161399c565b9050919050565b7f45434453413a20696e76616c6964207369676e6174757265202773272076616c60008201527f7565000000000000000000000000000000000000000000000000000000000000602082015250565b6000613a3b6022836123de565b9150613a46826139df565b604082019050919050565b60006020820190508181036000830152613a6a81613a2e565b9050919050565b613a7a8161292b565b82525050565b600060ff82169050919050565b613a9681613a80565b82525050565b6000608082019050613ab16000830187613a71565b613abe6020830186613a8d565b613acb6040830185613a71565b613ad86060830184613a71565b95945050505050565b7f4552433732313a206d696e7420746f20746865207a65726f2061646472657373600082015250565b6000613b176020836123de565b9150613b2282613ae1565b602082019050919050565b60006020820190508181036000830152613b4681613b0a565b9050919050565b7f4552433732313a20746f6b656e20616c7265616479206d696e74656400000000600082015250565b6000613b83601c836123de565b9150613b8e82613b4d565b602082019050919050565b60006020820190508181036000830152613bb281613b76565b905091905056fea2646970667358221220fb33cb0af39398a757cc3984b5cff6a54b463d406a2846c2377bdc425765820064736f6c6343000811003368747470733a2f2f636c6f7564666c6172652d697066732e636f6d2f697066732f",
  "linkReferences": {},
  "deployedLinkReferences": {}
}