{
  "_format": "hh-sol-artifact-1",
  "contractName": "RandomNFT",
  "sourceName": "contracts/RandomNFT.sol",
  "abi": [
    {
      "inputs": [],
      "stateMutability": "payable",
      "type": "constructor"
    },
    {
      "anonymous": false,
      "inputs": [
        {
          "indexed": true,
          "internalType": "address",
          "name": "owner",
          "type": "address"
        },
        {
          "indexed": true,
          "internalType": "address",
          "name": "approved",
          "type": "address"
        },
        {
          "indexed": true,
          "internalType": "uint256",
          "name": "tokenId",
          "type": "uint256"
        }
      ],
      "name": "Approval",
      "type": "event"
    },
    {
      "anonymous": false,
      "inputs": [
        {
          "indexed": true,
          "internalType": "address",
          "name": "owner",
          "type": "address"
        },
        {
          "indexed": true,
          "internalType": "address",
          "name": "operator",
          "type": "address"
        },
        {
          "indexed": false,
          "internalType": "bool",
          "name": "approved",
          "type": "bool"
        }
      ],
      "name": "ApprovalForAll",
      "type": "event"
    },
    {
      "anonymous": false,
      "inputs": [
        {
          "indexed": true,
          "internalType": "address",
          "name": "owner",
          "type": "address"
        },
        {
          "indexed": true,
          "internalType": "uint256",
          "name": "tokenId",
          "type": "uint256"
        },
        {
          "indexed": false,
          "internalType": "string",
          "name": "metadata",
          "type": "string"
        }
      ],
      "name": "Mint",
      "type": "event"
    },
    {
      "anonymous": false,
      "inputs": [
        {
          "indexed": true,
          "internalType": "address",
          "name": "previousOwner",
          "type": "address"
        },
        {
          "indexed": true,
          "internalType": "address",
          "name": "newOwner",
          "type": "address"
        }
      ],
      "name": "OwnershipTransferred",
      "type": "event"
    },
    {
      "anonymous": false,
      "inputs": [
        {
          "indexed": true,
          "internalType": "address",
          "name": "from",
          "type": "address"
        },
        {
          "indexed": true,
          "internalType": "address",
          "name": "to",
          "type": "address"
        },
        {
          "indexed": true,
          "internalType": "uint256",
          "name": "tokenId",
          "type": "uint256"
        }
      ],
      "name": "Transfer",
      "type": "event"
    },
    {
      "anonymous": false,
      "inputs": [
        {
          "indexed": true,
          "internalType": "address",
          "name": "owner",
          "type": "address"
        },
        {
          "indexed": false,
          "internalType": "uint256",
          "name": "amount",
          "type": "uint256"
        }
      ],
      "name": "Withdraw",
      "type": "event"
    },
    {
      "inputs": [
        {
          "internalType": "address",
          "name": "to",
          "type": "address"
        },
        {
          "internalType": "uint256",
          "name": "tokenId",
          "type": "uint256"
        }
      ],
      "name": "approve",
      "outputs": [],
      "stateMutability": "nonpayable",
      "type": "function"
    },
    {
      "inputs": [
        {
          "internalType": "address",
          "name": "owner",
          "type": "address"
        }
      ],
      "name": "balanceOf",
      "outputs": [
        {
          "internalType": "uint256",
          "name": "",
          "type": "uint256"
        }
      ],
      "stateMutability": "view",
      "type": "function"
    },
    {
      "inputs": [],
      "name": "baseTokenUri",
      "outputs": [
        {
          "internalType": "string",
          "name": "",
          "type": "string"
        }
      ],
      "stateMutability": "view",
      "type": "function"
    },
    {
      "inputs": [
        {
          "internalType": "uint256",
          "name": "tokenId",
          "type": "uint256"
        }
      ],
      "name": "getApproved",
      "outputs": [
        {
          "internalType": "address",
          "name": "",
          "type": "address"
        }
      ],
      "stateMutability": "view",
      "type": "function"
    },
    {
      "inputs": [
        {
          "internalType": "address",
          "name": "owner",
          "type": "address"
        },
        {
          "internalType": "address",
          "name": "operator",
          "type": "address"
        }
      ],
      "name": "isApprovedForAll",
      "outputs": [
        {
          "internalType": "bool",
          "name": "",
          "type": "bool"
        }
      ],
      "stateMutability": "view",
      "type": "function"
    },
    {
      "inputs": [],
      "name": "maxSupply",
      "outputs": [
        {
          "internalType": "uint256",
          "name": "",
          "type": "uint256"
        }
      ],
      "stateMutability": "view",
      "type": "function"
    },
    {
      "inputs": [
        {
          "internalType": "string",
          "name": "cid",
          "type": "string"
        },
        {
          "internalType": "bytes32",
          "name": "cidHash",
          "type": "bytes32"
        },
        {
          "internalType": "bytes",
          "name": "signature",
          "type": "bytes"
        }
      ],
      "name": "mint",
      "outputs": [],
      "stateMutability": "payable",
      "type": "function"
    },
    {
      "inputs": [],
      "name": "mintPrice",
      "outputs": [
        {
          "internalType": "uint256",
          "name": "",
          "type": "uint256"
        }
      ],
      "stateMutability": "view",
      "type": "function"
    },
    {
      "inputs": [],
      "name": "name",
      "outputs": [
        {
          "internalType": "string",
          "name": "",
          "type": "string"
        }
      ],
      "stateMutability": "view",
      "type": "function"
    },
    {
      "inputs": [],
      "name": "owner",
      "outputs": [
        {
          "internalType": "address",
          "name": "",
          "type": "address"
        }
      ],
      "stateMutability": "view",
      "type": "function"
    },
    {
      "inputs": [
        {
          "internalType": "uint256",
          "name": "tokenId",
          "type": "uint256"
        }
      ],
      "name": "ownerOf",
      "outputs": [
        {
          "internalType": "address",
          "name": "",
          "type": "address"
        }
      ],
      "stateMutability": "view",
      "type": "function"
    },
    {
      "inputs": [],
      "name": "renounceOwnership",
      "outputs": [],
      "stateMutability": "nonpayable",
      "type": "function"
    },
    {
      "inputs": [
        {
          "internalType": "address",
          "name": "from",
          "type": "address"
        },
        {
          "internalType": "address",
          "name": "to",
          "type": "address"
        },
        {
          "internalType": "uint256",
          "name": "tokenId",
          "type": "uint256"
        }
      ],
      "name": "safeTransferFrom",
      "outputs": [],
      "stateMutability": "nonpayable",
      "type": "function"
    },
    {
      "inputs": [
        {
          "internalType": "address",
          "name": "from",
          "type": "address"
        },
        {
          "internalType": "address",
          "name": "to",
          "type": "address"
        },
        {
          "internalType": "uint256",
          "name": "tokenId",
          "type": "uint256"
        },
        {
          "internalType": "bytes",
          "name": "data",
          "type": "bytes"
        }
      ],
      "name": "safeTransferFrom",
      "outputs": [],
      "stateMutability": "nonpayable",
      "type": "function"
    },
    {
      "inputs": [
        {
          "internalType": "address",
          "name": "operator",
          "type": "address"
        },
        {
          "internalType": "bool",
          "name": "approved",
          "type": "bool"
        }
      ],
      "name": "setApprovalForAll",
      "outputs": [],
      "stateMutability": "nonpayable",
      "type": "function"
    },
    {
      "inputs": [
        {
          "internalType": "string",
          "name": "_baseTokenUri",
          "type": "string"
        }
      ],
      "name": "setBaseTokenUri",
      "outputs": [],
      "stateMutability": "nonpayable",
      "type": "function"
    },
    {
      "inputs": [
        {
          "internalType": "bytes4",
          "name": "interfaceId",
          "type": "bytes4"
        }
      ],
      "name": "supportsInterface",
      "outputs": [
        {
          "internalType": "bool",
          "name": "",
          "type": "bool"
        }
      ],
      "stateMutability": "view",
      "type": "function"
    },
    {
      "inputs": [],
      "name": "symbol",
      "outputs": [
        {
          "internalType": "string",
          "name": "",
          "type": "string"
        }
      ],
      "stateMutability": "view",
      "type": "function"
    },
    {
      "inputs": [
        {
          "internalType": "uint256",
          "name": "_tokenId",
          "type": "uint256"
        }
      ],
      "name": "tokenURI",
      "outputs": [
        {
          "internalType": "string",
          "name": "",
          "type": "string"
        }
      ],
      "stateMutability": "view",
      "type": "function"
    },
    {
      "inputs": [],
      "name": "totalSupply",
      "outputs": [
        {
          "internalType": "uint256",
          "name": "",
          "type": "uint256"
        }
      ],
      "stateMutability": "view",
      "type": "function"
    },
    {
      "inputs": [
        {
          "internalType": "address",
          "name": "from",
          "type": "address"
        },
        {
          "internalType": "address",
          "name": "to",
          "type": "address"
        },
        {
          "internalType": "uint256",
          "name": "tokenId",
          "type": "uint256"
        }
      ],
      "name": "transferFrom",
      "outputs": [],
      "stateMutability": "nonpayable",
      "type": "function"
    },
    {
      "inputs": [
        {
          "internalType": "address",
          "name": "newOwner",
          "type": "address"
        }
      ],
      "name": "transferOwnership",
      "outputs": [],
      "stateMutability": "nonpayable",
      "type": "function"
    },
    {
      "inputs": [],
      "name": "withdraw",
      "outputs": [],
      "stateMutability": "nonpayable",
      "type": "function"
    },
    {
      "stateMutability": "payable",
      "type": "receive"
    }
  ],
  "bytecode": "0x60806040526040518060400160405280600981526020017f52616e646f6d4e465400000000000000000000000000000000000000000000008152506040518060400160405280600281526020017f524400000000000000000000000000000000000000000000000000000000000081525081600090816200008191906200044e565b5080600190816200009391906200044e565b505050620000b6620000aa6200010660201b60201c565b6200010e60201b60201c565b66038d7ea4c6800060078190555060006008819055506103e86009819055506040518060600160405280602181526020016200424c60219139600a9081620000ff91906200044e565b5062000535565b600033905090565b6000600660009054906101000a900473ffffffffffffffffffffffffffffffffffffffff16905081600660006101000a81548173ffffffffffffffffffffffffffffffffffffffff021916908373ffffffffffffffffffffffffffffffffffffffff1602179055508173ffffffffffffffffffffffffffffffffffffffff168173ffffffffffffffffffffffffffffffffffffffff167f8be0079c531659141344cd1fd0a4f28419497f9722a3daafe3b4186f6b6457e060405160405180910390a35050565b600081519050919050565b7f4e487b7100000000000000000000000000000000000000000000000000000000600052604160045260246000fd5b7f4e487b7100000000000000000000000000000000000000000000000000000000600052602260045260246000fd5b600060028204905060018216806200025657607f821691505b6020821081036200026c576200026b6200020e565b5b50919050565b60008190508160005260206000209050919050565b60006020601f8301049050919050565b600082821b905092915050565b600060088302620002d67fffffffffffffffffffffffffffffffffffffffffffffffffffffffffffffffff8262000297565b620002e2868362000297565b95508019841693508086168417925050509392505050565b6000819050919050565b6000819050919050565b60006200032f620003296200032384620002fa565b62000304565b620002fa565b9050919050565b6000819050919050565b6200034b836200030e565b620003636200035a8262000336565b848454620002a4565b825550505050565b600090565b6200037a6200036b565b6200038781848462000340565b505050565b5b81811015620003af57620003a360008262000370565b6001810190506200038d565b5050565b601f821115620003fe57620003c88162000272565b620003d38462000287565b81016020851015620003e3578190505b620003fb620003f28562000287565b8301826200038c565b50505b505050565b600082821c905092915050565b6000620004236000198460080262000403565b1980831691505092915050565b60006200043e838362000410565b9150826002028217905092915050565b6200045982620001d4565b67ffffffffffffffff811115620004755762000474620001df565b5b6200048182546200023d565b6200048e828285620003b3565b600060209050601f831160018114620004c65760008415620004b1578287015190505b620004bd858262000430565b8655506200052d565b601f198416620004d68662000272565b60005b828110156200050057848901518255600182019150602085019450602081019050620004d9565b868310156200052057848901516200051c601f89168262000410565b8355505b6001600288020188555050505b505050505050565b613d0780620005456000396000f3fe6080604052600436106101445760003560e01c8063715018a6116100b6578063b88d4fde1161006f578063b88d4fde14610441578063c5c2d15c1461046a578063c87b56dd14610486578063d5abeb01146104c3578063e985e9c5146104ee578063f2fde38b1461052b5761014b565b8063715018a6146103575780637a0101a21461036e5780638da5cb5b1461039957806395652cfa146103c457806395d89b41146103ed578063a22cb465146104185761014b565b806323b872dd1161010857806323b872dd146102495780633ccfd60b1461027257806342842e0e146102895780636352211e146102b25780636817c76c146102ef57806370a082311461031a5761014b565b806301ffc9a71461015057806306fdde031461018d578063081812fc146101b8578063095ea7b3146101f557806318160ddd1461021e5761014b565b3661014b57005b600080fd5b34801561015c57600080fd5b50610177600480360381019061017291906123d6565b610554565b604051610184919061241e565b60405180910390f35b34801561019957600080fd5b506101a2610636565b6040516101af91906124c9565b60405180910390f35b3480156101c457600080fd5b506101df60048036038101906101da9190612521565b6106c8565b6040516101ec919061258f565b60405180910390f35b34801561020157600080fd5b5061021c600480360381019061021791906125d6565b61070e565b005b34801561022a57600080fd5b50610233610825565b6040516102409190612625565b60405180910390f35b34801561025557600080fd5b50610270600480360381019061026b9190612640565b61082b565b005b34801561027e57600080fd5b5061028761088b565b005b34801561029557600080fd5b506102b060048036038101906102ab9190612640565b6109e7565b005b3480156102be57600080fd5b506102d960048036038101906102d49190612521565b610a07565b6040516102e6919061258f565b60405180910390f35b3480156102fb57600080fd5b50610304610a8d565b6040516103119190612625565b60405180910390f35b34801561032657600080fd5b50610341600480360381019061033c9190612693565b610a93565b60405161034e9190612625565b60405180910390f35b34801561036357600080fd5b5061036c610b4a565b005b34801561037a57600080fd5b50610383610b5e565b60405161039091906124c9565b60405180910390f35b3480156103a557600080fd5b506103ae610bec565b6040516103bb919061258f565b60405180910390f35b3480156103d057600080fd5b506103eb60048036038101906103e69190612725565b610c16565b005b3480156103f957600080fd5b50610402610c34565b60405161040f91906124c9565b60405180910390f35b34801561042457600080fd5b5061043f600480360381019061043a919061279e565b610cc6565b005b34801561044d57600080fd5b506104686004803603810190610463919061290e565b610cdc565b005b610484600480360381019061047f9190612a1d565b610d3e565b005b34801561049257600080fd5b506104ad60048036038101906104a89190612521565b611018565b6040516104ba91906124c9565b60405180910390f35b3480156104cf57600080fd5b506104d861109e565b6040516104e59190612625565b60405180910390f35b3480156104fa57600080fd5b5061051560048036038101906105109190612ab2565b6110a4565b604051610522919061241e565b60405180910390f35b34801561053757600080fd5b50610552600480360381019061054d9190612693565b611138565b005b60007f80ac58cd000000000000000000000000000000000000000000000000000000007bffffffffffffffffffffffffffffffffffffffffffffffffffffffff1916827bffffffffffffffffffffffffffffffffffffffffffffffffffffffff1916148061061f57507f5b5e139f000000000000000000000000000000000000000000000000000000007bffffffffffffffffffffffffffffffffffffffffffffffffffffffff1916827bffffffffffffffffffffffffffffffffffffffffffffffffffffffff1916145b8061062f575061062e826111bb565b5b9050919050565b60606000805461064590612b21565b80601f016020809104026020016040519081016040528092919081815260200182805461067190612b21565b80156106be5780601f10610693576101008083540402835291602001916106be565b820191906000526020600020905b8154815290600101906020018083116106a157829003601f168201915b5050505050905090565b60006106d382611225565b6004600083815260200190815260200160002060009054906101000a900473ffffffffffffffffffffffffffffffffffffffff169050919050565b600061071982610a07565b90508073ffffffffffffffffffffffffffffffffffffffff168373ffffffffffffffffffffffffffffffffffffffff1603610789576040517f08c379a000000000000000000000000000000000000000000000000000000000815260040161078090612bc4565b60405180910390fd5b8073ffffffffffffffffffffffffffffffffffffffff166107a8611270565b73ffffffffffffffffffffffffffffffffffffffff1614806107d757506107d6816107d1611270565b6110a4565b5b610816576040517f08c379a000000000000000000000000000000000000000000000000000000000815260040161080d90612c56565b60405180910390fd5b6108208383611278565b505050565b60085481565b61083c610836611270565b82611331565b61087b576040517f08c379a000000000000000000000000000000000000000000000000000000000815260040161087290612ce8565b60405180910390fd5b6108868383836113c6565b505050565b6108936116bf565b6000479050600081116108db576040517f08c379a00000000000000000000000000000000000000000000000000000000081526004016108d290612d54565b60405180910390fd5b60006108e5610bec565b73ffffffffffffffffffffffffffffffffffffffff168260405161090890612da5565b60006040518083038185875af1925050503d8060008114610945576040519150601f19603f3d011682016040523d82523d6000602084013e61094a565b606091505b505090508061098e576040517f08c379a000000000000000000000000000000000000000000000000000000000815260040161098590612e06565b60405180910390fd5b610996610bec565b73ffffffffffffffffffffffffffffffffffffffff167f884edad9ce6fa2440d8a54cc123490eb96d2768479d49ff9c7366125a9424364836040516109db9190612625565b60405180910390a25050565b610a0283838360405180602001604052806000815250610cdc565b505050565b600080610a138361173d565b9050600073ffffffffffffffffffffffffffffffffffffffff168173ffffffffffffffffffffffffffffffffffffffff1603610a84576040517f08c379a0000000000000000000000000000000000000000000000000000000008152600401610a7b90612e72565b60405180910390fd5b80915050919050565b60075481565b60008073ffffffffffffffffffffffffffffffffffffffff168273ffffffffffffffffffffffffffffffffffffffff1603610b03576040517f08c379a0000000000000000000000000000000000000000000000000000000008152600401610afa90612f04565b60405180910390fd5b600360008373ffffffffffffffffffffffffffffffffffffffff1673ffffffffffffffffffffffffffffffffffffffff168152602001908152602001600020549050919050565b610b526116bf565b610b5c600061177a565b565b600a8054610b6b90612b21565b80601f0160208091040260200160405190810160405280929190818152602001828054610b9790612b21565b8015610be45780601f10610bb957610100808354040283529160200191610be4565b820191906000526020600020905b815481529060010190602001808311610bc757829003601f168201915b505050505081565b6000600660009054906101000a900473ffffffffffffffffffffffffffffffffffffffff16905090565b610c1e6116bf565b8181600a9182610c2f9291906130db565b505050565b606060018054610c4390612b21565b80601f0160208091040260200160405190810160405280929190818152602001828054610c6f90612b21565b8015610cbc5780601f10610c9157610100808354040283529160200191610cbc565b820191906000526020600020905b815481529060010190602001808311610c9f57829003601f168201915b5050505050905090565b610cd8610cd1611270565b8383611840565b5050565b610ced610ce7611270565b83611331565b610d2c576040517f08c379a0000000000000000000000000000000000000000000000000000000008152600401610d2390612ce8565b60405180910390fd5b610d38848484846119ac565b50505050565b600754341015610d83576040517f08c379a0000000000000000000000000000000000000000000000000000000008152600401610d7a906131f7565b60405180910390fd5b6009546001600854610d959190613246565b1115610dd6576040517f08c379a0000000000000000000000000000000000000000000000000000000008152600401610dcd906132c6565b60405180910390fd5b6000600c8686604051610dea929190613316565b90815260200160405180910390205414610e39576040517f08c379a0000000000000000000000000000000000000000000000000000000008152600401610e309061337b565b60405180910390fd5b6000610e91610e4785611a08565b84848080601f016020809104026020016040519081016040528093929190818152602001838380828437600081840152601f19601f82011690508083019250505050505050611a38565b9050610e9b610bec565b73ffffffffffffffffffffffffffffffffffffffff168173ffffffffffffffffffffffffffffffffffffffff1614610f08576040517f08c379a0000000000000000000000000000000000000000000000000000000008152600401610eff906133e7565b60405180910390fd5b60086000815480929190610f1b90613407565b919050555060006008549050610f666040518060400160405280600281526020017f257300000000000000000000000000000000000000000000000000000000000081525082611a5f565b8686600b60008481526020019081526020016000209182610f889291906130db565b5080600c8888604051610f9c929190613316565b908152602001604051809103902081905550610fb83382611afb565b803373ffffffffffffffffffffffffffffffffffffffff167f85a66b9141978db9980f7e0ce3b468cebf4f7999f32b23091c5c03e798b1ba7a610ffa84611018565b60405161100791906124c9565b60405180910390a350505050505050565b606061102382611b19565b611062576040517f08c379a000000000000000000000000000000000000000000000000000000000815260040161105990612e72565b60405180910390fd5b600a600b60008481526020019081526020016000206040516020016110889291906134d2565b6040516020818303038152906040529050919050565b60095481565b6000600560008473ffffffffffffffffffffffffffffffffffffffff1673ffffffffffffffffffffffffffffffffffffffff16815260200190815260200160002060008373ffffffffffffffffffffffffffffffffffffffff1673ffffffffffffffffffffffffffffffffffffffff16815260200190815260200160002060009054906101000a900460ff16905092915050565b6111406116bf565b600073ffffffffffffffffffffffffffffffffffffffff168173ffffffffffffffffffffffffffffffffffffffff16036111af576040517f08c379a00000000000000000000000000000000000000000000000000000000081526004016111a690613568565b60405180910390fd5b6111b88161177a565b50565b60007f01ffc9a7000000000000000000000000000000000000000000000000000000007bffffffffffffffffffffffffffffffffffffffffffffffffffffffff1916827bffffffffffffffffffffffffffffffffffffffffffffffffffffffff1916149050919050565b61122e81611b19565b61126d576040517f08c379a000000000000000000000000000000000000000000000000000000000815260040161126490612e72565b60405180910390fd5b50565b600033905090565b816004600083815260200190815260200160002060006101000a81548173ffffffffffffffffffffffffffffffffffffffff021916908373ffffffffffffffffffffffffffffffffffffffff160217905550808273ffffffffffffffffffffffffffffffffffffffff166112eb83610a07565b73ffffffffffffffffffffffffffffffffffffffff167f8c5be1e5ebec7d5bd14f71427d1e84f3dd0314c0f7b2291e5b200ac8c7c3b92560405160405180910390a45050565b60008061133d83610a07565b90508073ffffffffffffffffffffffffffffffffffffffff168473ffffffffffffffffffffffffffffffffffffffff16148061137f575061137e81856110a4565b5b806113bd57508373ffffffffffffffffffffffffffffffffffffffff166113a5846106c8565b73ffffffffffffffffffffffffffffffffffffffff16145b91505092915050565b8273ffffffffffffffffffffffffffffffffffffffff166113e682610a07565b73ffffffffffffffffffffffffffffffffffffffff161461143c576040517f08c379a0000000000000000000000000000000000000000000000000000000008152600401611433906135fa565b60405180910390fd5b600073ffffffffffffffffffffffffffffffffffffffff168273ffffffffffffffffffffffffffffffffffffffff16036114ab576040517f08c379a00000000000000000000000000000000000000000000000000000000081526004016114a29061368c565b60405180910390fd5b6114b88383836001611b5a565b8273ffffffffffffffffffffffffffffffffffffffff166114d882610a07565b73ffffffffffffffffffffffffffffffffffffffff161461152e576040517f08c379a0000000000000000000000000000000000000000000000000000000008152600401611525906135fa565b60405180910390fd5b6004600082815260200190815260200160002060006101000a81549073ffffffffffffffffffffffffffffffffffffffff02191690556001600360008573ffffffffffffffffffffffffffffffffffffffff1673ffffffffffffffffffffffffffffffffffffffff168152602001908152602001600020600082825403925050819055506001600360008473ffffffffffffffffffffffffffffffffffffffff1673ffffffffffffffffffffffffffffffffffffffff16815260200190815260200160002060008282540192505081905550816002600083815260200190815260200160002060006101000a81548173ffffffffffffffffffffffffffffffffffffffff021916908373ffffffffffffffffffffffffffffffffffffffff160217905550808273ffffffffffffffffffffffffffffffffffffffff168473ffffffffffffffffffffffffffffffffffffffff167fddf252ad1be2c89b69c2b068fc378daa952ba7f163c4a11628f55a4df523b3ef60405160405180910390a46116ba8383836001611c80565b505050565b6116c7611270565b73ffffffffffffffffffffffffffffffffffffffff166116e5610bec565b73ffffffffffffffffffffffffffffffffffffffff161461173b576040517f08c379a0000000000000000000000000000000000000000000000000000000008152600401611732906136f8565b60405180910390fd5b565b60006002600083815260200190815260200160002060009054906101000a900473ffffffffffffffffffffffffffffffffffffffff169050919050565b6000600660009054906101000a900473ffffffffffffffffffffffffffffffffffffffff16905081600660006101000a81548173ffffffffffffffffffffffffffffffffffffffff021916908373ffffffffffffffffffffffffffffffffffffffff1602179055508173ffffffffffffffffffffffffffffffffffffffff168173ffffffffffffffffffffffffffffffffffffffff167f8be0079c531659141344cd1fd0a4f28419497f9722a3daafe3b4186f6b6457e060405160405180910390a35050565b8173ffffffffffffffffffffffffffffffffffffffff168373ffffffffffffffffffffffffffffffffffffffff16036118ae576040517f08c379a00000000000000000000000000000000000000000000000000000000081526004016118a590613764565b60405180910390fd5b80600560008573ffffffffffffffffffffffffffffffffffffffff1673ffffffffffffffffffffffffffffffffffffffff16815260200190815260200160002060008473ffffffffffffffffffffffffffffffffffffffff1673ffffffffffffffffffffffffffffffffffffffff16815260200190815260200160002060006101000a81548160ff0219169083151502179055508173ffffffffffffffffffffffffffffffffffffffff168373ffffffffffffffffffffffffffffffffffffffff167f17307eab39ab6107e8899845ad3d59bd9653f200f220920489ca2b5937696c318360405161199f919061241e565b60405180910390a3505050565b6119b78484846113c6565b6119c384848484611c86565b611a02576040517f08c379a00000000000000000000000000000000000000000000000000000000081526004016119f9906137f6565b60405180910390fd5b50505050565b600081604051602001611a1b9190613883565b604051602081830303815290604052805190602001209050919050565b6000806000611a478585611e0d565b91509150611a5481611e5e565b819250505092915050565b611af78282604051602401611a759291906138a9565b6040516020818303038152906040527fb60e72cc000000000000000000000000000000000000000000000000000000007bffffffffffffffffffffffffffffffffffffffffffffffffffffffff19166020820180517bffffffffffffffffffffffffffffffffffffffffffffffffffffffff8381831617835250505050611fc4565b5050565b611b15828260405180602001604052806000815250611fed565b5050565b60008073ffffffffffffffffffffffffffffffffffffffff16611b3b8361173d565b73ffffffffffffffffffffffffffffffffffffffff1614159050919050565b6001811115611c7a57600073ffffffffffffffffffffffffffffffffffffffff168473ffffffffffffffffffffffffffffffffffffffff1614611bee5780600360008673ffffffffffffffffffffffffffffffffffffffff1673ffffffffffffffffffffffffffffffffffffffff1681526020019081526020016000206000828254611be691906138d9565b925050819055505b600073ffffffffffffffffffffffffffffffffffffffff168373ffffffffffffffffffffffffffffffffffffffff1614611c795780600360008573ffffffffffffffffffffffffffffffffffffffff1673ffffffffffffffffffffffffffffffffffffffff1681526020019081526020016000206000828254611c719190613246565b925050819055505b5b50505050565b50505050565b6000611ca78473ffffffffffffffffffffffffffffffffffffffff16612048565b15611e00578373ffffffffffffffffffffffffffffffffffffffff1663150b7a02611cd0611270565b8786866040518563ffffffff1660e01b8152600401611cf29493929190613962565b6020604051808303816000875af1925050508015611d2e57506040513d601f19601f82011682018060405250810190611d2b91906139c3565b60015b611db0573d8060008114611d5e576040519150601f19603f3d011682016040523d82523d6000602084013e611d63565b606091505b506000815103611da8576040517f08c379a0000000000000000000000000000000000000000000000000000000008152600401611d9f906137f6565b60405180910390fd5b805181602001fd5b63150b7a0260e01b7bffffffffffffffffffffffffffffffffffffffffffffffffffffffff1916817bffffffffffffffffffffffffffffffffffffffffffffffffffffffff191614915050611e05565b600190505b949350505050565b6000806041835103611e4e5760008060006020860151925060408601519150606086015160001a9050611e428782858561206b565b94509450505050611e57565b60006002915091505b9250929050565b60006004811115611e7257611e716139f0565b5b816004811115611e8557611e846139f0565b5b0315611fc15760016004811115611e9f57611e9e6139f0565b5b816004811115611eb257611eb16139f0565b5b03611ef2576040517f08c379a0000000000000000000000000000000000000000000000000000000008152600401611ee990613a6b565b60405180910390fd5b60026004811115611f0657611f056139f0565b5b816004811115611f1957611f186139f0565b5b03611f59576040517f08c379a0000000000000000000000000000000000000000000000000000000008152600401611f5090613ad7565b60405180910390fd5b60036004811115611f6d57611f6c6139f0565b5b816004811115611f8057611f7f6139f0565b5b03611fc0576040517f08c379a0000000000000000000000000000000000000000000000000000000008152600401611fb790613b69565b60405180910390fd5b5b50565b60008151905060006a636f6e736f6c652e6c6f679050602083016000808483855afa5050505050565b611ff7838361214d565b6120046000848484611c86565b612043576040517f08c379a000000000000000000000000000000000000000000000000000000000815260040161203a906137f6565b60405180910390fd5b505050565b6000808273ffffffffffffffffffffffffffffffffffffffff163b119050919050565b6000807f7fffffffffffffffffffffffffffffff5d576e7357a4501ddfe92f46681b20a08360001c11156120a6576000600391509150612144565b6000600187878787604051600081526020016040526040516120cb9493929190613bb4565b6020604051602081039080840390855afa1580156120ed573d6000803e3d6000fd5b505050602060405103519050600073ffffffffffffffffffffffffffffffffffffffff168173ffffffffffffffffffffffffffffffffffffffff160361213b57600060019250925050612144565b80600092509250505b94509492505050565b600073ffffffffffffffffffffffffffffffffffffffff168273ffffffffffffffffffffffffffffffffffffffff16036121bc576040517f08c379a00000000000000000000000000000000000000000000000000000000081526004016121b390613c45565b60405180910390fd5b6121c581611b19565b15612205576040517f08c379a00000000000000000000000000000000000000000000000000000000081526004016121fc90613cb1565b60405180910390fd5b612213600083836001611b5a565b61221c81611b19565b1561225c576040517f08c379a000000000000000000000000000000000000000000000000000000000815260040161225390613cb1565b60405180910390fd5b6001600360008473ffffffffffffffffffffffffffffffffffffffff1673ffffffffffffffffffffffffffffffffffffffff16815260200190815260200160002060008282540192505081905550816002600083815260200190815260200160002060006101000a81548173ffffffffffffffffffffffffffffffffffffffff021916908373ffffffffffffffffffffffffffffffffffffffff160217905550808273ffffffffffffffffffffffffffffffffffffffff16600073ffffffffffffffffffffffffffffffffffffffff167fddf252ad1be2c89b69c2b068fc378daa952ba7f163c4a11628f55a4df523b3ef60405160405180910390a4612366600083836001611c80565b5050565b6000604051905090565b600080fd5b600080fd5b60007fffffffff0000000000000000000000000000000000000000000000000000000082169050919050565b6123b38161237e565b81146123be57600080fd5b50565b6000813590506123d0816123aa565b92915050565b6000602082840312156123ec576123eb612374565b5b60006123fa848285016123c1565b91505092915050565b60008115159050919050565b61241881612403565b82525050565b6000602082019050612433600083018461240f565b92915050565b600081519050919050565b600082825260208201905092915050565b60005b83811015612473578082015181840152602081019050612458565b60008484015250505050565b6000601f19601f8301169050919050565b600061249b82612439565b6124a58185612444565b93506124b5818560208601612455565b6124be8161247f565b840191505092915050565b600060208201905081810360008301526124e38184612490565b905092915050565b6000819050919050565b6124fe816124eb565b811461250957600080fd5b50565b60008135905061251b816124f5565b92915050565b60006020828403121561253757612536612374565b5b60006125458482850161250c565b91505092915050565b600073ffffffffffffffffffffffffffffffffffffffff82169050919050565b60006125798261254e565b9050919050565b6125898161256e565b82525050565b60006020820190506125a46000830184612580565b92915050565b6125b38161256e565b81146125be57600080fd5b50565b6000813590506125d0816125aa565b92915050565b600080604083850312156125ed576125ec612374565b5b60006125fb858286016125c1565b925050602061260c8582860161250c565b9150509250929050565b61261f816124eb565b82525050565b600060208201905061263a6000830184612616565b92915050565b60008060006060848603121561265957612658612374565b5b6000612667868287016125c1565b9350506020612678868287016125c1565b92505060406126898682870161250c565b9150509250925092565b6000602082840312156126a9576126a8612374565b5b60006126b7848285016125c1565b91505092915050565b600080fd5b600080fd5b600080fd5b60008083601f8401126126e5576126e46126c0565b5b8235905067ffffffffffffffff811115612702576127016126c5565b5b60208301915083600182028301111561271e5761271d6126ca565b5b9250929050565b6000806020838503121561273c5761273b612374565b5b600083013567ffffffffffffffff81111561275a57612759612379565b5b612766858286016126cf565b92509250509250929050565b61277b81612403565b811461278657600080fd5b50565b60008135905061279881612772565b92915050565b600080604083850312156127b5576127b4612374565b5b60006127c3858286016125c1565b92505060206127d485828601612789565b9150509250929050565b600080fd5b7f4e487b7100000000000000000000000000000000000000000000000000000000600052604160045260246000fd5b61281b8261247f565b810181811067ffffffffffffffff8211171561283a576128396127e3565b5b80604052505050565b600061284d61236a565b90506128598282612812565b919050565b600067ffffffffffffffff821115612879576128786127e3565b5b6128828261247f565b9050602081019050919050565b82818337600083830152505050565b60006128b16128ac8461285e565b612843565b9050828152602081018484840111156128cd576128cc6127de565b5b6128d884828561288f565b509392505050565b600082601f8301126128f5576128f46126c0565b5b813561290584826020860161289e565b91505092915050565b6000806000806080858703121561292857612927612374565b5b6000612936878288016125c1565b9450506020612947878288016125c1565b93505060406129588782880161250c565b925050606085013567ffffffffffffffff81111561297957612978612379565b5b612985878288016128e0565b91505092959194509250565b6000819050919050565b6129a481612991565b81146129af57600080fd5b50565b6000813590506129c18161299b565b92915050565b60008083601f8401126129dd576129dc6126c0565b5b8235905067ffffffffffffffff8111156129fa576129f96126c5565b5b602083019150836001820283011115612a1657612a156126ca565b5b9250929050565b600080600080600060608688031215612a3957612a38612374565b5b600086013567ffffffffffffffff811115612a5757612a56612379565b5b612a63888289016126cf565b95509550506020612a76888289016129b2565b935050604086013567ffffffffffffffff811115612a9757612a96612379565b5b612aa3888289016129c7565b92509250509295509295909350565b60008060408385031215612ac957612ac8612374565b5b6000612ad7858286016125c1565b9250506020612ae8858286016125c1565b9150509250929050565b7f4e487b7100000000000000000000000000000000000000000000000000000000600052602260045260246000fd5b60006002820490506001821680612b3957607f821691505b602082108103612b4c57612b4b612af2565b5b50919050565b7f4552433732313a20617070726f76616c20746f2063757272656e74206f776e6560008201527f7200000000000000000000000000000000000000000000000000000000000000602082015250565b6000612bae602183612444565b9150612bb982612b52565b604082019050919050565b60006020820190508181036000830152612bdd81612ba1565b9050919050565b7f4552433732313a20617070726f76652063616c6c6572206973206e6f7420746f60008201527f6b656e206f776e6572206f7220617070726f76656420666f7220616c6c000000602082015250565b6000612c40603d83612444565b9150612c4b82612be4565b604082019050919050565b60006020820190508181036000830152612c6f81612c33565b9050919050565b7f4552433732313a2063616c6c6572206973206e6f7420746f6b656e206f776e6560008201527f72206f7220617070726f76656400000000000000000000000000000000000000602082015250565b6000612cd2602d83612444565b9150612cdd82612c76565b604082019050919050565b60006020820190508181036000830152612d0181612cc5565b9050919050565b7f42616c616e6365206973207a65726f0000000000000000000000000000000000600082015250565b6000612d3e600f83612444565b9150612d4982612d08565b602082019050919050565b60006020820190508181036000830152612d6d81612d31565b9050919050565b600081905092915050565b50565b6000612d8f600083612d74565b9150612d9a82612d7f565b600082019050919050565b6000612db082612d82565b9150819050919050565b7f5472616e73666572206661696c65640000000000000000000000000000000000600082015250565b6000612df0600f83612444565b9150612dfb82612dba565b602082019050919050565b60006020820190508181036000830152612e1f81612de3565b9050919050565b7f4552433732313a20696e76616c696420746f6b656e2049440000000000000000600082015250565b6000612e5c601883612444565b9150612e6782612e26565b602082019050919050565b60006020820190508181036000830152612e8b81612e4f565b9050919050565b7f4552433732313a2061646472657373207a65726f206973206e6f74206120766160008201527f6c6964206f776e65720000000000000000000000000000000000000000000000602082015250565b6000612eee602983612444565b9150612ef982612e92565b604082019050919050565b60006020820190508181036000830152612f1d81612ee1565b9050919050565b600082905092915050565b60008190508160005260206000209050919050565b60006020601f8301049050919050565b600082821b905092915050565b600060088302612f917fffffffffffffffffffffffffffffffffffffffffffffffffffffffffffffffff82612f54565b612f9b8683612f54565b95508019841693508086168417925050509392505050565b6000819050919050565b6000612fd8612fd3612fce846124eb565b612fb3565b6124eb565b9050919050565b6000819050919050565b612ff283612fbd565b613006612ffe82612fdf565b848454612f61565b825550505050565b600090565b61301b61300e565b613026818484612fe9565b505050565b5b8181101561304a5761303f600082613013565b60018101905061302c565b5050565b601f82111561308f5761306081612f2f565b61306984612f44565b81016020851015613078578190505b61308c61308485612f44565b83018261302b565b50505b505050565b600082821c905092915050565b60006130b260001984600802613094565b1980831691505092915050565b60006130cb83836130a1565b9150826002028217905092915050565b6130e58383612f24565b67ffffffffffffffff8111156130fe576130fd6127e3565b5b6131088254612b21565b61311382828561304e565b6000601f8311600181146131425760008415613130578287013590505b61313a85826130bf565b8655506131a2565b601f19841661315086612f2f565b60005b8281101561317857848901358255600182019150602085019450602081019050613153565b868310156131955784890135613191601f8916826130a1565b8355505b6001600288020188555050505b50505050505050565b7f496e73756666696369656e74204554482073656e740000000000000000000000600082015250565b60006131e1601583612444565b91506131ec826131ab565b602082019050919050565b60006020820190508181036000830152613210816131d4565b9050919050565b7f4e487b7100000000000000000000000000000000000000000000000000000000600052601160045260246000fd5b6000613251826124eb565b915061325c836124eb565b925082820190508082111561327457613273613217565b5b92915050565b7f4d6178696d756d20737570706c79207265616368656400000000000000000000600082015250565b60006132b0601683612444565b91506132bb8261327a565b602082019050919050565b600060208201905081810360008301526132df816132a3565b9050919050565b600081905092915050565b60006132fd83856132e6565b935061330a83858461288f565b82840190509392505050565b60006133238284866132f1565b91508190509392505050565b7f416c7265616479206d696e746564000000000000000000000000000000000000600082015250565b6000613365600e83612444565b91506133708261332f565b602082019050919050565b6000602082019050818103600083015261339481613358565b9050919050565b7f496e76616c6964207369676e6174757265000000000000000000000000000000600082015250565b60006133d1601183612444565b91506133dc8261339b565b602082019050919050565b60006020820190508181036000830152613400816133c4565b9050919050565b6000613412826124eb565b91507fffffffffffffffffffffffffffffffffffffffffffffffffffffffffffffffff820361344457613443613217565b5b600182019050919050565b6000815461345c81612b21565b61346681866132e6565b945060018216600081146134815760018114613496576134c9565b60ff19831686528115158202860193506134c9565b61349f85612f2f565b60005b838110156134c1578154818901526001820191506020810190506134a2565b838801955050505b50505092915050565b60006134de828561344f565b91506134ea828461344f565b91508190509392505050565b7f4f776e61626c653a206e6577206f776e657220697320746865207a65726f206160008201527f6464726573730000000000000000000000000000000000000000000000000000602082015250565b6000613552602683612444565b915061355d826134f6565b604082019050919050565b6000602082019050818103600083015261358181613545565b9050919050565b7f4552433732313a207472616e736665722066726f6d20696e636f72726563742060008201527f6f776e6572000000000000000000000000000000000000000000000000000000602082015250565b60006135e4602583612444565b91506135ef82613588565b604082019050919050565b60006020820190508181036000830152613613816135d7565b9050919050565b7f4552433732313a207472616e7366657220746f20746865207a65726f2061646460008201527f7265737300000000000000000000000000000000000000000000000000000000602082015250565b6000613676602483612444565b91506136818261361a565b604082019050919050565b600060208201905081810360008301526136a581613669565b9050919050565b7f4f776e61626c653a2063616c6c6572206973206e6f7420746865206f776e6572600082015250565b60006136e2602083612444565b91506136ed826136ac565b602082019050919050565b60006020820190508181036000830152613711816136d5565b9050919050565b7f4552433732313a20617070726f766520746f2063616c6c657200000000000000600082015250565b600061374e601983612444565b915061375982613718565b602082019050919050565b6000602082019050818103600083015261377d81613741565b9050919050565b7f4552433732313a207472616e7366657220746f206e6f6e20455243373231526560008201527f63656976657220696d706c656d656e7465720000000000000000000000000000602082015250565b60006137e0603283612444565b91506137eb82613784565b604082019050919050565b6000602082019050818103600083015261380f816137d3565b9050919050565b7f19457468657265756d205369676e6564204d6573736167653a0a333200000000600082015250565b600061384c601c836132e6565b915061385782613816565b601c82019050919050565b6000819050919050565b61387d61387882612991565b613862565b82525050565b600061388e8261383f565b915061389a828461386c565b60208201915081905092915050565b600060408201905081810360008301526138c38185612490565b90506138d26020830184612616565b9392505050565b60006138e4826124eb565b91506138ef836124eb565b925082820390508181111561390757613906613217565b5b92915050565b600081519050919050565b600082825260208201905092915050565b60006139348261390d565b61393e8185613918565b935061394e818560208601612455565b6139578161247f565b840191505092915050565b60006080820190506139776000830187612580565b6139846020830186612580565b6139916040830185612616565b81810360608301526139a38184613929565b905095945050505050565b6000815190506139bd816123aa565b92915050565b6000602082840312156139d9576139d8612374565b5b60006139e7848285016139ae565b91505092915050565b7f4e487b7100000000000000000000000000000000000000000000000000000000600052602160045260246000fd5b7f45434453413a20696e76616c6964207369676e61747572650000000000000000600082015250565b6000613a55601883612444565b9150613a6082613a1f565b602082019050919050565b60006020820190508181036000830152613a8481613a48565b9050919050565b7f45434453413a20696e76616c6964207369676e6174757265206c656e67746800600082015250565b6000613ac1601f83612444565b9150613acc82613a8b565b602082019050919050565b60006020820190508181036000830152613af081613ab4565b9050919050565b7f45434453413a20696e76616c6964207369676e6174757265202773272076616c60008201527f7565000000000000000000000000000000000000000000000000000000000000602082015250565b6000613b53602283612444565b9150613b5e82613af7565b604082019050919050565b60006020820190508181036000830152613b8281613b46565b9050919050565b613b9281612991565b82525050565b600060ff82169050919050565b613bae81613b98565b82525050565b6000608082019050613bc96000830187613b89565b613bd66020830186613ba5565b613be36040830185613b89565b613bf06060830184613b89565b95945050505050565b7f4552433732313a206d696e7420746f20746865207a65726f2061646472657373600082015250565b6000613c2f602083612444565b9150613c3a82613bf9565b602082019050919050565b60006020820190508181036000830152613c5e81613c22565b9050919050565b7f4552433732313a20746f6b656e20616c7265616479206d696e74656400000000600082015250565b6000613c9b601c83612444565b9150613ca682613c65565b602082019050919050565b60006020820190508181036000830152613cca81613c8e565b905091905056fea2646970667358221220581bf6a21983154ed95eafb2589568c6c7506dd071ee1084c02702eff5deb90864736f6c6343000811003368747470733a2f2f636c6f7564666c6172652d697066732e636f6d2f697066732f",
  "linkReferences": {},
  "deployedLinkReferences": {}
}